{
  "contractName": "Lottery",
  "abi": [
    {
      "inputs": [],
      "stateMutability": "nonpayable",
      "type": "constructor"
    },
    {
      "inputs": [],
      "name": "manager",
      "outputs": [
        {
          "internalType": "address",
          "name": "",
          "type": "address"
        }
      ],
      "stateMutability": "view",
      "type": "function"
    },
    {
      "inputs": [
        {
          "internalType": "uint256",
          "name": "",
          "type": "uint256"
        }
      ],
      "name": "participants",
      "outputs": [
        {
          "internalType": "address payable",
          "name": "",
          "type": "address"
        }
      ],
      "stateMutability": "view",
      "type": "function"
    },
    {
      "stateMutability": "payable",
      "type": "receive"
    },
    {
      "inputs": [],
      "name": "getBalance",
      "outputs": [
        {
          "internalType": "uint256",
          "name": "",
          "type": "uint256"
        }
      ],
      "stateMutability": "view",
      "type": "function"
    },
    {
      "inputs": [],
      "name": "randomselect",
      "outputs": [
        {
          "internalType": "uint256",
          "name": "",
          "type": "uint256"
        }
      ],
      "stateMutability": "view",
      "type": "function"
    },
    {
      "inputs": [],
      "name": "selectwinner",
      "outputs": [
        {
          "internalType": "address",
          "name": "",
          "type": "address"
        }
      ],
      "stateMutability": "nonpayable",
      "type": "function"
    },
    {
      "inputs": [
        {
          "internalType": "address payable",
          "name": "winner",
          "type": "address"
        }
      ],
      "name": "sendprizemoney",
      "outputs": [],
      "stateMutability": "nonpayable",
      "type": "function"
    }
  ],
  "bytecode": "0x608060405234801561001057600080fd5b50336000806101000a81548173ffffffffffffffffffffffffffffffffffffffff021916908373ffffffffffffffffffffffffffffffffffffffff1602179055506106fe806100606000396000f3fe6080604052600436106100595760003560e01c806312065fe0146100db57806335c1d34914610106578063481c6a7514610143578063a145ca9c1461016e578063b95ed84d14610197578063f06e40ba146101c2576100d6565b366100d657670de0b6b3a7640000341461007257600080fd5b6001339080600181540180825580915050600190039060005260206000200160009091909190916101000a81548173ffffffffffffffffffffffffffffffffffffffff021916908373ffffffffffffffffffffffffffffffffffffffff1602179055005b600080fd5b3480156100e757600080fd5b506100f06101ed565b6040516100fd9190610471565b60405180910390f35b34801561011257600080fd5b5061012d600480360381019061012891906104bd565b61024e565b60405161013a919061052b565b60405180910390f35b34801561014f57600080fd5b5061015861028d565b6040516101659190610567565b60405180910390f35b34801561017a57600080fd5b50610195600480360381019061019091906105ae565b6102b1565b005b3480156101a357600080fd5b506101ac610302565b6040516101b99190610471565b60405180910390f35b3480156101ce57600080fd5b506101d761033c565b6040516101e49190610567565b60405180910390f35b60008060009054906101000a900473ffffffffffffffffffffffffffffffffffffffff1673ffffffffffffffffffffffffffffffffffffffff163373ffffffffffffffffffffffffffffffffffffffff161461024857600080fd5b47905090565b6001818154811061025e57600080fd5b906000526020600020016000915054906101000a900473ffffffffffffffffffffffffffffffffffffffff1681565b60008054906101000a900473ffffffffffffffffffffffffffffffffffffffff1681565b8073ffffffffffffffffffffffffffffffffffffffff166108fc6102d36101ed565b9081150290604051600060405180830381858888f193505050501580156102fe573d6000803e3d6000fd5b5050565b6000444260018054905060405160200161031e939291906105fc565b6040516020818303038152906040528051906020012060001c905090565b60008060009054906101000a900473ffffffffffffffffffffffffffffffffffffffff1673ffffffffffffffffffffffffffffffffffffffff163373ffffffffffffffffffffffffffffffffffffffff161461039757600080fd5b600360018054905010156103aa57600080fd5b60006103b4610302565b90506000600180549050826103c99190610668565b9050610412600182815481106103e2576103e1610699565b5b9060005260206000200160009054906101000a900473ffffffffffffffffffffffffffffffffffffffff166102b1565b6001818154811061042657610425610699565b5b9060005260206000200160009054906101000a900473ffffffffffffffffffffffffffffffffffffffff169250505090565b6000819050919050565b61046b81610458565b82525050565b60006020820190506104866000830184610462565b92915050565b600080fd5b61049a81610458565b81146104a557600080fd5b50565b6000813590506104b781610491565b92915050565b6000602082840312156104d3576104d261048c565b5b60006104e1848285016104a8565b91505092915050565b600073ffffffffffffffffffffffffffffffffffffffff82169050919050565b6000610515826104ea565b9050919050565b6105258161050a565b82525050565b6000602082019050610540600083018461051c565b92915050565b6000610551826104ea565b9050919050565b61056181610546565b82525050565b600060208201905061057c6000830184610558565b92915050565b61058b8161050a565b811461059657600080fd5b50565b6000813590506105a881610582565b92915050565b6000602082840312156105c4576105c361048c565b5b60006105d284828501610599565b91505092915050565b6000819050919050565b6105f66105f182610458565b6105db565b82525050565b600061060882866105e5565b60208201915061061882856105e5565b60208201915061062882846105e5565b602082019150819050949350505050565b7f4e487b7100000000000000000000000000000000000000000000000000000000600052601260045260246000fd5b600061067382610458565b915061067e83610458565b92508261068e5761068d610639565b5b828206905092915050565b7f4e487b7100000000000000000000000000000000000000000000000000000000600052603260045260246000fdfea2646970667358221220abbf67ae2fc93ed1ec3920425bde9578a192a80c50483e4e374c163f197c268c64736f6c63430008110033",
  "immutableReferences": {},
  "source": "// SPDX-License-Identifier: MIT\r\n\r\npragma solidity ^0.8.0;\r\n\r\ncontract Lottery{\r\n    address public manager;\r\n    address payable[] public participants;\r\n    constructor(){\r\n        manager=msg.sender;     // as constructor is executed once to jo deploy krega wo uss time msg.sender hoga aur whi manager bn jyega\r\n                                // msg.sender means which address is executing the contract at that time\r\n\r\n    }\r\n    \r\n    receive() external payable{\r\n        require(msg.value==1 ether);   // agr yeh true hoga tbhi next statement execute hoga  but agr false hua to revert back kr jyega\r\n        participants.push(payable(msg.sender));   // adding members to participants after receiving payemnt\r\n    }\r\n    function getBalance() public view returns(uint){\r\n        require(msg.sender==manager); // work as if statement but also have some more functionality \r\n        return address(this).balance;           // returns balance of this contract\r\n    }\r\n    function randomselect() public view returns(uint){\r\n        return uint(keccak256(abi.encodePacked(block.difficulty,block.timestamp,participants.length)));  // no need to learn this function and do not use this in real world contracts\r\n    }\r\n    function selectwinner() public returns(address){\r\n        require(msg.sender==manager);\r\n        require(participants.length>=3);\r\n        uint r=randomselect();\r\n        uint index = r % participants.length;\r\n        sendprizemoney(participants[index]);\r\n        return participants[index];\r\n    }\r\n    function sendprizemoney(address payable winner) public {\r\n        winner.transfer(getBalance());\r\n    }\r\n}\r\n",
  "sourcePath": "C:\\Users\\91914\\Dapp\\lottery\\contracts\\lottery.sol",
  "compiler": {
    "name": "solc",
    "version": "0.8.17+commit.8df45f5f.Emscripten.clang"
  },
  "schemaVersion": "3.4.11",
  "updatedAt": "2023-01-12T06:21:24.254Z",
  "devdoc": {
    "kind": "dev",
    "methods": {},
    "version": 1
  },
  "userdoc": {
    "kind": "user",
    "methods": {},
    "version": 1
  }
}